{
  "_format": "hh-sol-artifact-1",
  "contractName": "PresaleUMBA",
  "sourceName": "contracts/Presale.sol",
  "abi": [
    {
      "anonymous": false,
      "inputs": [
        {
          "indexed": true,
          "internalType": "address",
          "name": "previousOwner",
          "type": "address"
        },
        {
          "indexed": true,
          "internalType": "address",
          "name": "newOwner",
          "type": "address"
        }
      ],
      "name": "OwnershipTransferred",
      "type": "event"
    },
    {
      "inputs": [],
      "name": "UsdtAddress",
      "outputs": [
        {
          "internalType": "address",
          "name": "",
          "type": "address"
        }
      ],
      "stateMutability": "view",
      "type": "function"
    },
    {
      "inputs": [],
      "name": "amountRaisedUsdt",
      "outputs": [
        {
          "internalType": "uint256",
          "name": "",
          "type": "uint256"
        }
      ],
      "stateMutability": "view",
      "type": "function"
    },
    {
      "inputs": [
        {
          "internalType": "uint256",
          "name": "_amountUSDT",
          "type": "uint256"
        }
      ],
      "name": "buyTokens",
      "outputs": [],
      "stateMutability": "nonpayable",
      "type": "function"
    },
    {
      "inputs": [
        {
          "internalType": "uint256",
          "name": "_minBuyUSDT",
          "type": "uint256"
        }
      ],
      "name": "changeMinimumLimits",
      "outputs": [],
      "stateMutability": "nonpayable",
      "type": "function"
    },
    {
      "inputs": [
        {
          "internalType": "uint256",
          "name": "_price",
          "type": "uint256"
        }
      ],
      "name": "changePrice",
      "outputs": [],
      "stateMutability": "nonpayable",
      "type": "function"
    },
    {
      "inputs": [],
      "name": "minBuyUsdt",
      "outputs": [
        {
          "internalType": "uint256",
          "name": "",
          "type": "uint256"
        }
      ],
      "stateMutability": "view",
      "type": "function"
    },
    {
      "inputs": [],
      "name": "owner",
      "outputs": [
        {
          "internalType": "address",
          "name": "",
          "type": "address"
        }
      ],
      "stateMutability": "view",
      "type": "function"
    },
    {
      "inputs": [],
      "name": "renounceOwnership",
      "outputs": [],
      "stateMutability": "nonpayable",
      "type": "function"
    },
    {
      "inputs": [],
      "name": "tokenAddress",
      "outputs": [
        {
          "internalType": "address",
          "name": "",
          "type": "address"
        }
      ],
      "stateMutability": "view",
      "type": "function"
    },
    {
      "inputs": [],
      "name": "tokenPerUsdt",
      "outputs": [
        {
          "internalType": "uint256",
          "name": "",
          "type": "uint256"
        }
      ],
      "stateMutability": "view",
      "type": "function"
    },
    {
      "inputs": [
        {
          "internalType": "address",
          "name": "newOwner",
          "type": "address"
        }
      ],
      "name": "transferOwnership",
      "outputs": [],
      "stateMutability": "nonpayable",
      "type": "function"
    },
    {
      "inputs": [
        {
          "internalType": "uint256",
          "name": "_value",
          "type": "uint256"
        }
      ],
      "name": "transferTokens",
      "outputs": [],
      "stateMutability": "nonpayable",
      "type": "function"
    },
    {
      "inputs": [
        {
          "internalType": "uint256",
          "name": "_value",
          "type": "uint256"
        }
      ],
      "name": "transferUsdt",
      "outputs": [],
      "stateMutability": "nonpayable",
      "type": "function"
    }
  ],
  "bytecode": "0x6080604052739125e2c2e77e5c8207fe5111bc84f32fc1246d2d600160006101000a81548173ffffffffffffffffffffffffffffffffffffffff021916908373ffffffffffffffffffffffffffffffffffffffff16021790555073dac17f958d2ee523a2206206994597c13d831ec7600260006101000a81548173ffffffffffffffffffffffffffffffffffffffff021916908373ffffffffffffffffffffffffffffffffffffffff16021790555067ad78ebc5ac62000060035560646004553480156100cb57600080fd5b506100e86100dd6100ed60201b60201c565b6100f560201b60201c565b6101b9565b600033905090565b60008060009054906101000a900473ffffffffffffffffffffffffffffffffffffffff169050816000806101000a81548173ffffffffffffffffffffffffffffffffffffffff021916908373ffffffffffffffffffffffffffffffffffffffff1602179055508173ffffffffffffffffffffffffffffffffffffffff168173ffffffffffffffffffffffffffffffffffffffff167f8be0079c531659141344cd1fd0a4f28419497f9722a3daafe3b4186f6b6457e060405160405180910390a35050565b610c13806101c86000396000f3fe608060405234801561001057600080fd5b50600436106100cf5760003560e01c80638da5cb5b1161008c578063bc29551511610066578063bc295515146101c6578063bd9ba3c3146101e4578063f2fde38b14610202578063fd9a4e611461021e576100cf565b80638da5cb5b1461016e5780639d76ea581461018c578063a2b40d19146101aa576100cf565b80633610724e146100d457806344fce2a3146100f057806360a86b1f1461010e57806361f623021461012a578063715018a6146101485780638c94f86714610152575b600080fd5b6100ee60048036038101906100e9919061089d565b61023a565b005b6100f86103fd565b6040516101059190610a45565b60405180910390f35b6101286004803603810190610123919061089d565b610403565b005b610132610415565b60405161013f919061098a565b60405180910390f35b61015061043b565b005b61016c6004803603810190610167919061089d565b61044f565b005b610176610510565b604051610183919061098a565b60405180910390f35b610194610539565b6040516101a1919061098a565b60405180910390f35b6101c460048036038101906101bf919061089d565b61055f565b005b6101ce610571565b6040516101db9190610a45565b60405180910390f35b6101ec610577565b6040516101f99190610a45565b60405180910390f35b61021c6004803603810190610217919061084b565b61057d565b005b6102386004803603810190610233919061089d565b610601565b005b60045481101561024957600080fd5b6000620f42408261025a9190610ac7565b90506000600260009054906101000a900473ffffffffffffffffffffffffffffffffffffffff1690508073ffffffffffffffffffffffffffffffffffffffff166323b872dd3330856040518463ffffffff1660e01b81526004016102c0939291906109a5565b602060405180830381600087803b1580156102da57600080fd5b505af11580156102ee573d6000803e3d6000fd5b505050506040513d601f19601f820116820180604052508101906103129190610874565b61031b57600080fd5b60006003548461032b9190610ac7565b90508360055461033b9190610a71565b6005819055506000600160009054906101000a900473ffffffffffffffffffffffffffffffffffffffff1690508073ffffffffffffffffffffffffffffffffffffffff1663a9059cbb33846040518363ffffffff1660e01b81526004016103a39291906109dc565b602060405180830381600087803b1580156103bd57600080fd5b505af11580156103d1573d6000803e3d6000fd5b505050506040513d601f19601f820116820180604052508101906103f59190610874565b505050505050565b60035481565b61040b6106c2565b8060048190555050565b600260009054906101000a900473ffffffffffffffffffffffffffffffffffffffff1681565b6104436106c2565b61044d6000610740565b565b6104576106c2565b6000600260009054906101000a900473ffffffffffffffffffffffffffffffffffffffff1690508073ffffffffffffffffffffffffffffffffffffffff1663a9059cbb33846040518363ffffffff1660e01b81526004016104b99291906109dc565b602060405180830381600087803b1580156104d357600080fd5b505af11580156104e7573d6000803e3d6000fd5b505050506040513d601f19601f8201168201806040525081019061050b9190610874565b505050565b60008060009054906101000a900473ffffffffffffffffffffffffffffffffffffffff16905090565b600160009054906101000a900473ffffffffffffffffffffffffffffffffffffffff1681565b6105676106c2565b8060038190555050565b60045481565b60055481565b6105856106c2565b600073ffffffffffffffffffffffffffffffffffffffff168173ffffffffffffffffffffffffffffffffffffffff1614156105f5576040517f08c379a00000000000000000000000000000000000000000000000000000000081526004016105ec90610a05565b60405180910390fd5b6105fe81610740565b50565b6106096106c2565b6000600160009054906101000a900473ffffffffffffffffffffffffffffffffffffffff1690508073ffffffffffffffffffffffffffffffffffffffff1663a9059cbb33846040518363ffffffff1660e01b815260040161066b9291906109dc565b602060405180830381600087803b15801561068557600080fd5b505af1158015610699573d6000803e3d6000fd5b505050506040513d601f19601f820116820180604052508101906106bd9190610874565b505050565b6106ca610804565b73ffffffffffffffffffffffffffffffffffffffff166106e8610510565b73ffffffffffffffffffffffffffffffffffffffff161461073e576040517f08c379a000000000000000000000000000000000000000000000000000000000815260040161073590610a25565b60405180910390fd5b565b60008060009054906101000a900473ffffffffffffffffffffffffffffffffffffffff169050816000806101000a81548173ffffffffffffffffffffffffffffffffffffffff021916908373ffffffffffffffffffffffffffffffffffffffff1602179055508173ffffffffffffffffffffffffffffffffffffffff168173ffffffffffffffffffffffffffffffffffffffff167f8be0079c531659141344cd1fd0a4f28419497f9722a3daafe3b4186f6b6457e060405160405180910390a35050565b600033905090565b60008135905061081b81610b98565b92915050565b60008151905061083081610baf565b92915050565b60008135905061084581610bc6565b92915050565b60006020828403121561085d57600080fd5b600061086b8482850161080c565b91505092915050565b60006020828403121561088657600080fd5b600061089484828501610821565b91505092915050565b6000602082840312156108af57600080fd5b60006108bd84828501610836565b91505092915050565b6108cf81610b21565b82525050565b60006108e2602683610a60565b91507f4f776e61626c653a206e6577206f776e657220697320746865207a65726f206160008301527f64647265737300000000000000000000000000000000000000000000000000006020830152604082019050919050565b6000610948602083610a60565b91507f4f776e61626c653a2063616c6c6572206973206e6f7420746865206f776e65726000830152602082019050919050565b61098481610b5f565b82525050565b600060208201905061099f60008301846108c6565b92915050565b60006060820190506109ba60008301866108c6565b6109c760208301856108c6565b6109d4604083018461097b565b949350505050565b60006040820190506109f160008301856108c6565b6109fe602083018461097b565b9392505050565b60006020820190508181036000830152610a1e816108d5565b9050919050565b60006020820190508181036000830152610a3e8161093b565b9050919050565b6000602082019050610a5a600083018461097b565b92915050565b600082825260208201905092915050565b6000610a7c82610b5f565b9150610a8783610b5f565b9250827fffffffffffffffffffffffffffffffffffffffffffffffffffffffffffffffff03821115610abc57610abb610b69565b5b828201905092915050565b6000610ad282610b5f565b9150610add83610b5f565b9250817fffffffffffffffffffffffffffffffffffffffffffffffffffffffffffffffff0483118215151615610b1657610b15610b69565b5b828202905092915050565b6000610b2c82610b3f565b9050919050565b60008115159050919050565b600073ffffffffffffffffffffffffffffffffffffffff82169050919050565b6000819050919050565b7f4e487b7100000000000000000000000000000000000000000000000000000000600052601160045260246000fd5b610ba181610b21565b8114610bac57600080fd5b50565b610bb881610b33565b8114610bc357600080fd5b50565b610bcf81610b5f565b8114610bda57600080fd5b5056fea26469706673582212200c8c02e722cb93ca392682b6b86012314ef7d9e6a5f8eb7c939bfcf28ecba3e664736f6c63430008000033",
  "linkReferences": {},
  "deployedLinkReferences": {}
}